:1000000000100020652200009122000091220000D3
:100010009122000091220000912200009122000014
:100020009122000091220000912200009122000004
:10003000912200009122000091220000B9160000D8
:10004000912200002D200000611600009122000086
:1000500091220000912200009122000091220000D4
:100060009122000051200000912200009122000006
:1000700091220000912200009122000091220000B4
:1000800091220000ED210000912200009122000049
:1000900091220000912200009122000010B5054C31
:1000A000237833B9044B13B10448AFF30080012324
:1000B000237010BD8000002000000000883B00007D
:1000C00008B5064B1BB106480649AFF30080064849
:1000D000036813B1054B03B1984708BD0000000049
:1000E000883B000084000020780000200000000011
:1000F000154B002B08BF134B9D46A3F5803A0021FA
:100100008B460F461348144A121A03F04FFC0F4B4C
:10011000002B00D098470E4B002B00D098470020B2
:10012000002104000D000D48002802D00C48AFF358
:10013000008003F005FC2000290000F0E7FC03F03C
:10014000EBFB00BF000008000010002000000000D2
:1001500000000000800000201002002000000000CD
:10016000000000004E200121752200F085BC08B57A
:100170004E200721402200F07FFC20B14E200821B4
:10018000FF2200F079FC10F0010004D04E2006217F
:10019000042200F071FC00F0010008BD08B54E20FB
:1001A0000921002200F068FC20B14E200A21002223
:1001B00000F062FC00F0010008BD08B54E201021DF
:1001C000142200F059FC20B14E201121FF2200F032
:1001D00053FC00F0010008BD4E201221662200F001
:1001E0004BBC4E201321002200F046BC4E200321C0
:1001F0001C2200F041BC4E20002100F052BC08B58A
:10020000FFF7F9FFB0F153035842584108BD0828E1
:100210009ABF00F12301C9B213214E2000F041BC66
:100220004E20022100F03DBC10B5FFF7F9FF10F0A1
:100230001C0F044609D001214E2000F032FC0121A0
:1002400000F05A024E2000F017FC22464E200221F8
:10025000BDE8104000F010BC092838B516D80C4B8A
:100260001B789BB1092818BF00F1230501F07F041A
:1002700014BFEDB21325FFF7CAFFA04206D02946EE
:1002800022464E20BDE8384000F0F6BB002038BDC5
:10029000A0010020022837B514D84B7800EB4005A8
:1002A0008DF804300B7800248DF805308B788DF8AC
:1002B0000630601901AB195DC0B20134FFF7CCFF05
:1002C000032CF6D103B030BD07B5002001A98DF88D
:1002D00004008DF805008DF80600FFF7DBFF01A98B
:1002E0000120FFF7D7FF022001A9FFF7D3FF03B0DA
:1002F0005DF804FB10B54E202321002200F0BCFB6A
:1003000020B14E2035210A2200F0B6FB0446FFF74B
:10031000DBFF04F0010010BD08B5FFF723FF08B1B3
:10032000FFF725FF10F0010001D0FFF737FF10F0B5
:10033000010001D0FFF741FF10F0010001D0FFF7ED
:100340004BFF10F0010001D0FFF74BFF10F0010050
:1003500001D0FFF74BFF10F0010001D0FFF7CAFFFB
:10036000024B01221A70104008BD00BFA0010020FE
:1003700007B532238DF8043001A900238DF805302C
:100380008DF80630FFF786FF03B05DF804FB07B574
:1003900000238DF804308DF8053001A932238DF843
:1003A0000630FFF777FF03B05DF804FB07B50023C5
:1003B000322201A98DF804308DF805208DF8063021
:1003C000FFF768FF03B05DF804FB38B50021044671
:1003D00002F062FF18B1204602F072FF38BD2046DD
:1003E00002F06EFF054602F051FD214602F036FF95
:1003F00008B9681E38BD284638BD00002DE9FF4702
:100400008DE803009DF8040002F03CFD4FF07051B0
:1004100002F090FD0021009D9DF80540804602F00D
:100420001DFF30B18DF80C408DF80D408DF80E4059
:1004300065E0204602F026FD39490746284602F0CD
:100440002DFE0546FFF7C1FF824602F01FFD014663
:10045000284602F065FC414681464FF07E5002F08E
:100460005FFC0146384602F065FD02F04FFF494649
:10047000C5B2404602F05EFD01464FF07E5002F0EC
:100480004FFC0146384602F055FD02F03FFF494659
:10049000C6B24FF07E5002F043FC0146404602F0E7
:1004A00049FD01464FF07E5002F03AFC01463846C5
:1004B00002F040FD02F02AFFC0B2BAF1040F14D8D6
:1004C000DFE80AF0031706090E002646044610E08E
:1004D0002E4605460DE033462E4625461C4608E0CE
:1004E000224606462C46154603E0334626462C4651
:1004F0001D468DF80C608DF80D408DF80E509DF85E
:100500000C30002063F307009DF80D3063F30F20DB
:100510009DF80E3063F3174004B0BDE8F08700BFCC
:100520000000704230B5012000241B4D85B002460A
:100530000B2123462C7001F0F1FA012002460D2117
:10054000234601F0EBFA012002460E21234601F07A
:10055000E5FA234602200E21012201F0DFFA684667
:100560002146102203F022FA0C4B1B6800930C4B1F
:100570001B6801930B4B1B6802930B4B1B68039387
:100580002B785DF80420043402EB4303102CDBB21B
:10059000F7D12B7005B030BDD00100202C080C42E3
:1005A00034080C4238080C42B80C0C42014B187845
:1005B000704700BFD0010020034B1B780F2B01D1E7
:1005C00000F084BF00F0E8BFD0010020034B1B788F
:1005D0000F2B01D100F09ABF00F0FEBFD001002028
:1005E000034B1B780F2B01D100F09EBF01F000B828
:1005F000D0010020044B4FF4805210B1C3F8A0206A
:100600007047C3F8A42070470060004008B501F0AF
:1006100073F800F0E1F800F055F9BDE8084000F08B
:100620006FB900003F4B37B500251D703E4B0022CF
:100630001A603E487F2201211A715A7101F0EAF8CE
:1006400001F0CEFC2B4602200F21012201F066FAB8
:100650000122134604200B2101F060FA04200C2132
:100660000822012301F05AFA012213460320062131
:1006700001F054FA012213460320042101F04EFA3E
:100680002B4603200721042201F048FA284C0420BD
:1006900002462B460D2101F041FA21460F2001F0C0
:1006A000ADFC21460B2001F0A9FC2146062001F0FB
:1006B000A5FC21460420012401F0A0FC0F210A46DC
:1006C000234600940194022001F0F8F90B210A4618
:1006D000234600940194042001F0F0F906210A4613
:1006E000234600940194032001F0E8F904210A460E
:1006F000234600940194032001F0E0F90D4B4FF4E0
:100700007A721A600C4B0D491A680D4B1A600D4B2A
:1007100032221A600C4B00221D700023C1E9002315
:1007200003B030BDA8010020D80100200062040001
:100730004D080000B0010020C8010020E0010020A9
:10074000CC010020B8010020C401002000000000FE
:100750001D4B37B51B787BB31C4C4FF07E51206886
:1007600002F0E0FA1A49054602F096FD08B9256044
:1007700001E000232360174DD5E9000100F004FEDD
:10078000607194E80300FFF739FEC0F307238DF88A
:100790000400C0F307408DF8060001A902208DF87F
:1007A0000530FFF777FDD5E9000105A3D3E9002364
:1007B00001F0EEFDC5E9000103B030BDAFF30080EC
:1007C000333333333333D33FA8010020D801002023
:1007D0000000B443E001002070B5094C80264FF4BE
:1007E0000055C4F88060C820C4F8A45000F06CFF25
:1007F000E667C820C4F8A050BDE8704000F064BFB0
:100800000060004013B50F4C23781BB1FFF75CFD6F
:10081000002313E00C4B93E80300FFF7EFFDC0F358
:1008200007238DF80400C0F307408DF8060001A9E6
:1008300002208DF80530FFF72DFD0123237002B053
:1008400010BD00BFA8010020D80100200F2816D13C
:10085000154B16491868164A164B28B9126801201C
:1008600008701A60FFF7CEBF1B6812680020D21A0A
:1008700041F288339A42087015D9FFF7C7BE0B289A
:1008800003D10D4B1B6873B9F7E7062804D10B4B56
:100890001B6843B9FFF7C8BC042804D1084B1B6888
:1008A0000BB900F045B97047BC0C0C42C4010020E4
:1008B000C8010020CC010020AC150C4218110C42DC
:1008C00010110C421FB50C4B0FCB8DE80F00002010
:1008D00001460B22012301F021F901210B220B46D5
:1008E000002001F01BF9054803238363694601F0EA
:1008F00083F904B010BD00BF5C3B000000A00040C5
:1009000010B5FFF753FE264B00221A70FFF754FE76
:1009100008B1FFF75BFE10F0010001D000F070FDA0
:1009200010F0010001D000F0FBF810F0010402D03B
:1009300000F03EF90446FFF753FE14F0010001D029
:10094000FFF75DFC10F0010402D0FFF7E5FC044660
:1009500000F086FDFFF7B8FCE3074FF0020014D566
:10096000FFF706FD4FF4FA7000F0AEFE0220FFF72D
:100970001DFD4FF4FA7000F0A7FE0220FFF707FDFF
:100980004FF4FA7000F0A0FE05E0FFF7F1FC4FF421
:10099000FA7000F061FEBDE81040FFF795BC00BFA3
:1009A000A001002010B501460B4801F06FFA0A487B
:1009B00001F03AF9094C40B2012807D1013C03D0BB
:1009C000054801F031F9F6E7204610BDD0F10100ED
:1009D00038BF002010BD00BF00A00040E19304001C
:1009E000B0B586B0038800AF0289BB800123FB80CD
:1009F00002F10803DB086946A1EBC30183788D4649
:100A00008DF800300023934205DA4468E55CCC1889
:100A100065700133F7E70132381DB960BA81FFF71D
:100A2000C1FF1837BD46B0BDB0B586B0028A694671
:100A300002F10803DB08A1EBC301837800AF8D4608
:100A40008DF800300023934205DAC468E55CCC18C9
:100A500065700133F7E703880132BB800423FB8014
:100A60004368B9603B610389381DBA81BB82FFF7D7
:100A700099FF1837BD46B0BD7FB50123ADF80630EC
:100A800000ABADF80400029301A802238DF800101A
:100A90008DF80120ADF80C30FFF784FF07B05DF84A
:100AA00004FB00B5FF2389B08DF804300423ADF8B2
:100AB0000E3008AB03F8181DADF80C00049301AA22
:100AC000012303A8ADF814300692ADF81C30FFF7EF
:100AD00069FF9DF8040009B05DF804FB08B50948FA
:100AE000012100F097FE0848012100F093FEFFF776
:100AF00019FD00F001FE00F067F9BDE80840FFF7BE
:100B000091BD00BF00B204000062040008B5FFF709
:100B1000E5FFFFF77BFDFEE7D0207521FFF7C1BFA2
:100B200008B5FFF7F9FFB0F171035842584108BD0D
:100B3000704708B5D0206B210022FFF79DFF20B140
:100B4000D0206C210722FFF797FF10F0010004D09E
:100B5000D0201D210522FFF78FFF10F0010004D0E7
:100B6000D02038214022FFF787FF10F0010004D089
:100B7000D0206921C022FFF77FFF10F0010004D0D0
:100B8000D0201F21FF22FFF777FF10F0010004D0D3
:100B9000D0201E210322FFF76FFF10F0010004D0C8
:100BA000D0206B210322FFF767FF00F0010008BD92
:100BB000FFF7BFBF70B50D46044602F035F8064694
:100BC00001F032FD02460B462046294602F004F8A9
:100BD00008B1701E70BD304670BD0000C9B2F8B5D6
:100BE00030F911300F4F1A44D3B230F8136006F0C9
:100BF0000E06B85701F018FDDDE9062301F07AFD75
:100C00003E44044696F901000D4601F00DFDDDE974
:100C1000082301F06FFD02460B462046294601F0ED
:100C2000B7FBF8BD6C3B000038B5044600680D46C4
:100C300008B102F0B3FE606808B102F0AFFE6800D0
:100C400002F0A4FE0546206040B14FF4007002F0AF
:100C50009DFE606028B9284602F0A0FE6FF00B00F0
:100C600038BD002038BD00002DE9F04F0446ADF539
:100C7000037D082016460D4602F088FE30600028ED
:100C800000F08C800022026042604FF48071FFF718
:100C9000CBFF814620B1306802F080FE484681E0FB
:100CA0003368D3F800805F6802A921F81000013092
:100CB000B0F5807FF8D1DFF80C91414E09FB04F3C9
:100CC000A4FB060106FB0533194439A3D3E900232D
:100CD000801809FB00F441EB030106FB0144A0FB73
:100CE00006018018214409FB00F441EB030106FBD7
:100CF0000144A0FB06012144841841EB0305CDE922
:100D00000045002400250098019A09FB00F106FB2C
:100D10000211A0FB06230B4425A1D1E90001801894
:100D200041EB0301CDE9000123A1D1E900018018C5
:100D300041EB030114F5807245F1000302F006FB5C
:100D400004F5807B002A134602A9B8BF0BEB02030F
:100D500031F81300620008EB0201A1F8FE0100B2B5
:100D60001821B0FBF1FA01FB1A0102A807EB020CF3
:100D70000244B2F8FE2114F1FF3420F8132045F1AB
:100D8000FF356FF0FF024FF0FF3301EB41019D4251
:100D900008BF9442ACF8FE11B5D102E06FF00B0031
:100DA00000E000200DF5037DBDE8F08FAFF300807B
:100DB0004F8167F77E7B05146E8167F77E7B051494
:100DC0002D7F954C2DF4515808B50021024A034857
:100DD000FFF74AFF012008BDF00100203E2E010070
:100DE0002DE9F04F97B016461F4611901946104650
:100DF000DDE9202301F0CCFA63A3D3E9002301F05D
:100E000079FC04460D4622462B463046394601F011
:100E1000BFFA22462B46CDE90601DDE9200101F0AB
:100E2000B7FA04460D46DDE90601FFF7C3FE294681
:100E300080462046FFF7BEFE8146404401F0F4FBA9
:100E400053A3D3E9002301F055FCCDE90A01404644
:100E500001F0EAFB824648468B4601F0E5FB52462C
:100E60005B46CDE90801DDE9060101F08FFADDE915
:100E70000823CDE90C012046294601F087FACDE987
:100E80000E01DDE90E23DDE90C0101F081FADDE957
:100E90000A23CDE912015046594601F079FA02467B
:100EA0000B463046394601F071FADDE90A23CDE9F7
:100EB0000601DDE9080101F06BFA02460B46DDE9A7
:100EC000200101F063FA0022CDE90401DDE9060109
:100ED000314B01F05BFA2EA3D3E90023CDE90801E1
:100EE00001F054FA2AA3D3E9002382468B46DDE9B8
:100EF000040101F04BFA524606460F465B46504647
:100F0000594601F0F7FB02460B4600204FF08041A6
:100F100001F03CFA324604460D463B46304639461F
:100F200001F0E8FB02460B462046294601F02EFA66
:100F30000022002304460D4601F06CFE00282DD04F
:100F400022462B462046294601F0D4FB0B4602469A
:100F500001F0D0FBCDE900ABCDE90267119A044660
:100F60000D46106808F101014A46FFF737FE0246B8
:100F70000B462046294601F0BDFB0022002301F06C
:100F800007FA82468B460DE0C399DF74B10CCBBFE4
:100F90005B99B0D0F56CD73F0000F03F4FF0000AEE
:100FA0004FF0000B86A3D3E90023DDE9060101F031
:100FB000EDF90022CDE91401DDE90401844B01F0D3
:100FC000E5F97FA3D3E90023CDE90A0101F0DEF9B9
:100FD00006460F46DDE9140102460B4601F08AFB86
:100FE00002460B4600204FF0804101F0CFF9324617
:100FF00004460D463B463046394601F07BFB02462F
:101000000B462046294601F0C1F900220023044680
:101010000D4601F0FFFD002826D022462B46204633
:10102000294601F067FB02460B4601F063FBDDE950
:101030001423CDE90267CDE90023119B04460D4638
:10104000186809F101024146FFF7C8FD02460B4648
:101050002046294601F04EFB02460B4650465946B3
:1010600001F096F982468B46DDE912010022584BC9
:1010700001F0BCFD002849D0DDE9122300205449CD
:1010800001F084F9DDE90C2304460D4601F0C2FDB0
:1010900030B920462946DDE90E2301F0BBFDF0B151
:1010A000DDE90C01DDE90E2301F0B4FD50B1DDE90D
:1010B00004010022464B08F1010709F1FF3601F057
:1010C00067F920E0DDE906010022414B01F060F9FB
:1010D00008F1FF3709F10106CDE908019CE0DDE9DF
:1010E000080139A3D3E9002301F050F936A3D3E96D
:1010F0000023CDE90801DDE90A0108F1010709F142
:10110000010601F043F9CDE90A0185E0DDE912238A
:1011100000204FF0804101F039F9DDE90C2304464D
:101120000D4601F059FD38B920462946DDE90E2368
:1011300001F052FD00284DD0DDE90C01DDE90E2360
:1011400001F068FDF0B1DDE9060100224FF08043B7
:1011500001F01CF91CA3D3E9002301F017F90022C8
:10116000CDE90601DDE90401002301F011F916A320
:10117000D3E9002301F00AF908F10207CDE90401DF
:101180004E4629E0DDE906010022002301F000F9C6
:101190000DA3D3E9002301F0F9F80022CDE90601FF
:1011A000DDE904014FF0804301F0F0F806A3D3E934
:1011B000002301F0EBF809F10206CDE904010AE091
:1011C0005B99B0D0F56CD73F5B99B0D0F56CE73F39
:1011D0000000F03F4E464746DDE908015EA3D3E933
:1011E000002301F0D3F85CA3D3E9002304460D46A5
:1011F000DDE90A0101F0CAF8DDE90423CDE90401C3
:10120000CDE90A23DDE90623CDE90645CDE908232A
:1012100008F1010809F10109DDE9060102460B4662
:1012200001F068FA02460B4600204FF0804101F0C1
:10123000ADF804460D46DDE9040102460B4601F017
:1012400059FA02460B462046294601F09FF8002233
:10125000002304460D4601F0DDFC002827D022467D
:101260002B462046294601F045FA02460B4601F07E
:1012700041FADDE90623CDE90023DDE90423CDE9C8
:101280000223119B04460D4618684A464146FFF763
:10129000A5FC02460B462046294601F02BFA0246E1
:1012A0000B465046594601F073F882468B46DDE9FD
:1012B000080102460B4601F01DFA02460B460020CB
:1012C0004FF0804101F062F804460D46DDE90A0165
:1012D00002460B4601F00EFA02460B46204629460E
:1012E00001F054F80022002304460D4601F092FC60
:1012F000002827D022462B462046294601F0FAF93D
:1013000002460B4601F0F6F9DDE90823CDE900239A
:10131000DDE90A23CDE90223119B04460D46186836
:1013200032463946FFF75AFC02460B46204629460C
:1013300001F0E0F902460B465046594601F028F804
:1013400082468B46504659460022054B01F0FCFA76
:1013500017B0BDE8F08F00BF5B99B0D0F56CE73FE8
:1013600000804740AFF3008007B50B4602460021DE
:101370000020CDE9000103490868FFF731FD03B003
:101380005DF804FBF001002008B5FFF7EDFF01F068
:1013900073FC4FF07E5101F0C5FC4FF07C5101F021
:1013A000C9FD054901F0C6FD4FF0854101F0BAFCC9
:1013B00001F0ACFFC0B208BD00007C4200B5FF23C5
:1013C00089B08DF804300D4B03A85A781B788DF83E
:1013D00008208DF80E30802202ABADF80C20069369
:1013E00001AA0123ADF81C30ADF814300492FFF7C8
:1013F0001BFB049B187809B05DF804FB000000207B
:1014000008B5FFF7DBFFB0F120035842584108BD93
:101410007FB5124B01A81B88ADF800308023ADF8D2
:101420000430E3238DF806300023ADF814306B440C
:1014300002930223ADF80C30FFF7F6FA029B1878FE
:101440005B7843EA002044F2A44358430014A0F51B
:1014500092500D3807B05DF804FB00BF7C3B0000E4
:1014600008B5FFF7D5FF01F011FD024901F016FEA6
:1014700008BD00BF0000C84238B50F4C2378254690
:101480004BB1FFF7EDFF0D4901F0F2FE18B100235B
:10149000237001200BE02C786CB9FFF7E1FF0849BD
:1014A00001F004FF38B1044B01221A702046BDE858
:1014B0003840FFF79FB838BD0402002000004842C2
:1014C00000007042E0201821FFF7EBBA08B5FFF7E3
:1014D000F9FFB0F112035842584108BD1FB500286A
:1014E0000CBF002310238DF80030E023ADF804304A
:1014F00000238DF806306B44029301A80123ADF858
:101500000C30FFF76DFA05B05DF804FB034A0023C9
:101510001360034A01201360FFF7E0BFAC01002015
:10152000C00100200000000010B5FF2386B08DF838
:101530000030E023ADF8043008238DF8063000AB0E
:1015400002930123ADF80C3001A80023ADF814304C
:10155000FFF76AFA029B01A81C7809238DF8063070
:10156000FFF762FA029B187844EA002001F08EFC33
:1015700001F06CF804A3D3E9002301F0BBF801F0FB
:101580007BFB06B010BD00BF05C078060DFD633FB4
:10159000E0201821FFF785BA08B5FFF7F9FFB0F191
:1015A00014035842584108BD1FB500280CBF002342
:1015B00010238DF80030E023ADF8043000238DF8BF
:1015C00006306B44029301A80123ADF80C30FFF7FD
:1015D00007FA05B05DF804FB034A00231360034AD1
:1015E00001201360FFF7E0BFD4010020B401002008
:1015F00010B5FF2386B08DF80030E023ADF804303D
:1016000008238DF8063000AB02930123ADF80C30AF
:1016100001A80023ADF81430FFF706FA029B01A8D9
:101620001C7809238DF80630FFF7FEF9029B187825
:1016300044EA002001F02AFC01F008F804A3D3E9F1
:10164000002301F057F801F017FB06B010BD00BFF2
:1016500005C078060DFD633F7047000000000000E4
:1016600010B5114B114C01229A612068104901F00C
:1016700013FE18B1FFF700FF00232360206800F07D
:10168000E5FF07A3D3E9002300F082FE01F0F4FA9E
:101690002060BDE81040FFF75BB800BFAFF30080EB
:1016A000A0ADF8E01E99B93F00000140BC01002048
:1016B00000006144AFF30080024B1A6801321A60E7
:1016C000704700BFC8010020034B19681A68521AFE
:1016D0008242FBD3704700BFC8010020044BDA6888
:1016E00042F00102DA60034B04221A60704700BF27
:1016F0000000014000E100E01FB51A4800F04EF97B
:101700004FF47A73B0FBF3F00138B0F1807F28D248
:10171000154B164AE0215860002482F82310072256
:101720009C6013481A60012100F074F821460D22D4
:10173000684602F03BF901238DF800308DF8013046
:101740000A238DF80230FFF7C9FF0A4840F25753C9
:10175000C361694600F0E8FB074B00221A6004B041
:1017600010BDFEE75000020010E000E000ED00E0D8
:101770000042040000000140BC010020164B5B69E0
:1017800003F4E063B3F5007F14D005D813B3B3F5C9
:10179000807F1DD111487047B3F5C06F16D0B3F5E7
:1017A000E06F11D0B3F5407F12D10D4B0D4AD86CCC
:1017B0000D4B03E00A4B0D4AD86C0D4BB0F1985F0E
:1017C00034BF1046184670470A4870470A487047A9
:1017D000002070470948704700800C40C0D8A7001F
:1017E000B081E00F40420F00804F1200C0CF6A006E
:1017F00040B56400406F4001003FAB01809FD500C1
:10180000034B5A6DD20702D41A6D1042FCD17047B7
:1018100000800C40C0F30323013B70B50D46092B3B
:1018200023D8DFE803F014080522220B0E22221130
:1018300000230E4C0DE000230D4C0AE001230D4C5B
:1018400007E010230C4C04E000230C4C01E00C4C8E
:101850000023C0F3043613B11846FFF7D1FF04F19B
:10186000047406EBC406B600356070BD40800C40C1
:1018700044800C4058800C4060800C4078800C40C4
:1018800008800C4000F00F00013805283CD8DFE844
:1018900000F00313233B3B331F4BDB6A03F470530D
:1018A000B3F5805F32D0B3F5005F31D0B3F5006F90
:1018B0000CBF042005207047174B986A00F0030006
:1018C000022828D0032815D001281FD09B6A13F4C2
:1018D000803F1FD1012070470F4A936A03F00C0329
:1018E000082B15D00C2B05D0042B0FD0936A13F4C2
:1018F000801FEEE706207047074B1B6813F0805FE0
:1019000014BF08200720704700207047032070474D
:10191000022070470920704700800C4010B5044633
:10192000FFF7B0FF1A4B9C4207D01A4B9C4208D1DC
:10193000194B986AC0F3810003E0174B986A00F0D6
:101940000300032822D8DFE800F00E02060ABDE8F3
:10195000104000F00ABDBDE8104000F00DBD00F0E1
:10196000F3FC400810BD0A488442034602D0094AED
:1019700094420BD1084A9C4214BF14241024906A4C
:10198000E04004D0BDE8104000F0F2BC002010BDE3
:101990000200180003001A0000800C4000F47810C8
:1019A000B0F5901F08B544D016D8B0F5802F31D0CF
:1019B00008D800286FD0B0F5003F74D1BDE80840CA
:1019C00000F0C2BCB0F5602F69D0B0F5801F28D000
:1019D000B0F5402F67D157E0B0F5D01F49D007D8F8
:1019E000B0F5A01F4AD0B0F5C01F5CD12F4841E030
:1019F000B0F5181F25D0B0F5201F31D0B0F5101F5D
:101A000051D12A48FFF78AFF294B9B6EC3F301335C
:101A100004332CE000F03EFC254B9B6803F00F03E1
:101A200025E02248FFF77AFF214B9B6EC3F3031397
:101A30001DE01E48FFF772FF1D4B9B6EC3F303238F
:101A400015E01A48FFF76AFF194B9A6EDB6FC2F375
:101A50000132D04003F007030133B0FBF3F008BDBF
:101A60001248FFF75BFF124B9B6E03F00303D84055
:101A700008BD1048BDE80840FFF750BF0D48FFF70C
:101A80004DFF0B4B1B6FF0E70B48FFF7FBFE0728E2
:101A900005D0082807D1BDE8084000F0FBBBBDE831
:101AA0000840FFF76BBE002008BD00BF0200180011
:101AB00000800C4003001A0006000C00072970B5D6
:101AC00002D88C00114A03E0A1F10804104AA400D6
:101AD0000725A54000FA04F4166826EA050545EA3C
:101AE000040010600B4A0A44920013609DF8103005
:101AF000C2F88030012303FA01F1074BC3F81C112F
:101B00009DF81430C2F8003170BD00BF0061004084
:101B1000046100404008831000600040F0B572B1DD
:101B2000012524248D4033B1444304F1804404F55D
:101B3000C044256103E004FB00F6194CA5512424A0
:101B40004443072904F1804404F5C0440AD88D00B9
:101B50000F26AE4002FA05F5676827EA0606354308
:101B600065600CE001F18045083DAD000F26AE40F8
:101B700002FA05F5A76827EA06063543A5606AB9A3
:101B80000124242204FA01F150432BB100F18040DA
:101B900000F5C0400161F0BD014B1950F0BD00BF20
:101BA0001460004070B504461E461546FAB103683D
:101BB00023F440730360036823F4407343EA06236D
:101BC000036019B90A48FFF7E9FE01462368094B8B
:101BD000A1EB85019A5D236855439B07B1FBF5F2A4
:101BE00002F1FF3202D5002A08BF0122226170BD36
:101BF000408104007E3B000000224263094A38B560
:101C000002634A7800F104756B0182F001020C4610
:101C10005A604968237BA268FFF7C4FF23786D01EF
:101C20002B6038BDCFFF0100964BF0B5984240F0D5
:101C30002481954B98681E7859881A79914FBC6A0F
:101C40003D4614F4C06F0CD0A5058F4859801A7119
:101C500001D5FD2203E0640540F1FF80FE224270C1
:101C6000FBE0082E00F2F580DFE816F00900210005
:101C7000460055006E008000A700BC00E5005980BA
:101C800041881A710288C80605D5120A02F00602B8
:101C900042F0F00205E002F0FE028F0748BF42F07A
:101CA00001027849012018704A624860D7E0260690
:101CB00000F18580640601D401204AE040253D639F
:101CC0004588704CEE0606D51A7102221A70027809
:101CD00059806262C3E0AF0740F182801A7100EB65
:101CE000C20212895980012A4FF00701197040F091
:101CF000B68008226260B2E0260660D4640601D491
:101D0000022026E040243C63448814F0020F14BFF4
:101D10000326052692E7598041881A710288C80671
:101D200043BF120A02F0060242F0F00202F0FE0285
:101D30004F074FF004011970524948BF42F00102A9
:101D4000012048604A628AE0260638D4640604D43A
:101D50000420187059801A7181E040243C63448843
:101D600067073DD51A715980072277E000EBC2045E
:101D700025898D4218D84188013201F00404A4B2AB
:101D8000D2B214B10021032658E711F0010106D0A8
:101D90005C801A7108221A7002213A4A40E0012A36
:101DA0007FF64CAF5980F4E71A716268481C515CA9
:101DB000344A58805162062250E026060AD51A712C
:101DC000802259802A63FF225A7008221A70022248
:101DD0006A6044E0640601D40620BAE740243C630C
:101DE00005262BE707265980A106274D1E701A717C
:101DF00035D500EBC20211896C8822488C42C0693B
:101E000003D25268661C6E80105558881D4A88425D
:101E100008D3012904BF082151600821197002214B
:101E200051601CE004240129546018D00139884213
:101E300015D10821F4E708201A71E20518705980BD
:101E40000DD5104A4FF4807111630F4A09211170AA
:101E500005E01A71FB2259805A7009221A7019780C
:101E6000094A09290BD107480021416392F9010071
:101E7000012808BF5170587802E0FC2000E00120E2
:101E800040B2F0BD00A000409C000020154B9842DD
:101E900024D18368DB0744BF202343604B889A0723
:101EA00001D50A89D2B1580701D50B8AB3B10E4BBF
:101EB000002201201A711A7058705A809960094BDB
:101EC000C0225A609A6A0748920648BFDA69074AF0
:101ED0001A634FF4FC625A63FFF7A6BE6FF003006B
:101EE000704700BF00A000409C000020CFFF010011
:101EF00020B1012805D1044BD8687047024B98687F
:101F000070470020704700BF0000084010B1012852
:101F100002D07047024B00E0024B1960704700BFCF
:101F2000080008400C0008400B7810B50BB90222DD
:101F3000426000224262CA788C78120442EA04624B
:101F40000C7A22438C7942EA8422CC7942EA042238
:101F50004C78002C0CBF0024402422434C7A002CE7
:101F60000CBF0024802422438C7A002C0CBF002458
:101F700020242243CC7A002C0CBF002410242243BE
:101F80000C79002C0CBF00244FF4005422434C79F0
:101F9000097B002C0CBF00244FF08054002942EA3A
:101FA00004020CBF002108210A4302600BB1012387
:101FB000436010BD10B5044674B194FAA4F0012337
:101FC000B0FA80F0834024EA0304044B53F8203035
:101FD000002BF1D09847EFE710BD00BFAC00002008
:101FE000054B4FF40072C3F880211A600222C3F837
:101FF00080211A60704700BF00E100E072B6094B13
:102000001A68B2F1FF3F1CBF01321A601B68064A12
:1020100042F8201023B1034A013B136003B962B6B2
:10202000704700BFA8000020AC000020074BD3F889
:102030001001D3F81421104020F42A5020F02A0077
:102040004004400CC3F81C01FFF7B4BF006000401F
:10205000074BD3F81001D3F81421104020F4AA4004
:1020600020F055000004000CC3F81C01FFF7A2BFCC
:102070000060004072B6044B1A68511C1CBF01324C
:102080001A601868704700BFA8000020034B18684A
:1020900018B10138186000B962B67047A800002076
:1020A000F0B5224901F1A00C00234B750B7D002BEC
:1020B00037D00446002551E902239D4208BF9442CF
:1020C00005D2121B63EB050341E9022329E0CE7D13
:1020D0000EB90E7521E0D1E90067921943EB0703B1
:1020E000121B63EB05038C6841E90223002CCD68C9
:1020F00007DD2C44F32CCC600FD9013243F10003EF
:1021000007E02C1BF32CCC6007D912F1FF3243F10E
:10211000FF3341E90223F43CCC600B690BB101238E
:102120004B7528316145BFD1F0BD00BFF8000020DC
:1021300038B5074C0025637F1BB1A3692846216A87
:1021400098470135042D04F12804F4D138BD00BFAF
:10215000F000002070B51F4E4FF0FF3206F1A001D5
:102160004FF0FF3334783CB156E907459D4208BF34
:1021700094423CBF22462B4628368E42F2D1164965
:102180000024B3F1FF3F08BFB2F1FF3F0C700E46D1
:102190001ED01249124C002509789D4208BF944276
:1021A00038BF22460F4C19B920F07F41216000E072
:1021B00020600D4C02238118A361002021F07F4193
:1021C000FFF7A4FE01233370E36943F00203E361E8
:1021D00070BD00BF0C010020EC000020ED000020CD
:1021E0009BFFFF009001002000000840F8B5FFF7BA
:1021F00041FF184B1A69920728D5174A01215C68DC
:1022000011701746134E154DF36923F00203F36165
:102210002868201A20F07F40FFF742FFFFF788FF71
:102220002046FFF797FF74682B680020E31A23F01D
:102230007F46FFF75DFE0A4A2B681278C01A20F02D
:102240007F430AB19E42DDD800233B70BDE8F840D1
:10225000FFF71CBF00000840ED00002090010020A7
:10226000EC000020064880470649074A074B9A427F
:10227000BEBF51F8040B42F8040BF8E7FDF738FF36
:1022800069230000943B0000000000207C00002037
:10229000FEE700BF204AD36A03F47053B3F5805FB2
:1022A00035D0B3F5005F04D0B3F5006F04D11B4BFC
:1022B00000E01B4B18687047D36803F4E063B3F584
:1022C000007F16D008D8B3B1B3F5807F1DD1154B70
:1022D000154AD86C154B12E0B3F5806F1AD0B3F5E0
:1022E000A06F04D0B3F5407F0FD11148704711485B
:1022F0007047114870470B4B104AD86C104BB0F127
:10230000985F34BF104618467047002070474FF45E
:10231000004070470B48704700800C4008000020C8
:1023200004000020B081E00FC0CF6A0040B5640017
:10233000809FD500003FAB01C0D8A70040420F00EE
:10234000804F1200406F400108B5FFF7A3FF044B18
:102350005B6803F00F03D840024B186008BD00BF54
:1023600000800C400802002070474FF40040704786
:102370004FF47A7070470000014B1868704700BF37
:102380000400002081F0004102E000BF83F0004320
:1023900030B54FEA41044FEA430594EA050F08BF00
:1023A00090EA020F1FBF54EA000C55EA020C7FEAC4
:1023B000645C7FEA655C00F0E2804FEA5454D4EB41
:1023C0005555B8BF6D420CDD2C4480EA020281EA0B
:1023D000030382EA000083EA010180EA020281EA43
:1023E0000303362D88BF30BD11F0004F4FEA013195
:1023F0004FF4801C4CEA113102D0404261EB4101A4
:1024000013F0004F4FEA03334CEA133302D0524229
:1024100063EB430394EA050F00F0A780A4F10104E5
:10242000D5F1200E0DDB02FA0EFC22FA05F280181F
:1024300041F1000103FA0EF2801843FA05F3594105
:102440000EE0A5F120050EF1200E012A03FA0EFC84
:1024500028BF4CF0020C43FA05F3C01851EBE371AE
:1024600001F0004507D54FF0000EDCF1000C7EEBCB
:1024700000006EEB0101B1F5801F1BD3B1F5001F09
:102480000CD349085FEA30004FEA3C0C04F1010428
:102490004FEA445212F5800F80F09A80BCF1004F51
:1024A00008BF5FEA500C50F1000041EB045141EAD3
:1024B000050130BD5FEA4C0C404141EB010111F4D4
:1024C000801FA4F10104E9D191F0000F04BF01467F
:1024D0000020B1FA81F308BF2033A3F10B03B3F15D
:1024E00020020CDA0C3208DD02F1140CC2F10C02ED
:1024F00001FA0CF021FA02F10CE002F11402D8BF4B
:10250000C2F1200C01FA02F120FA0CFCDCBF41EA16
:102510000C019040E41AA2BF01EB0451294330BDE5
:102520006FEA04041F3C1CDA0C340EDC04F11404C2
:10253000C4F1200220FA04F001FA02F340EA030099
:1025400021FA04F345EA030130BDC4F10C04C4F1DF
:10255000200220FA02F001FA04F340EA03002946BF
:1025600030BD21FA04F0294630BD94F0000F83F409
:10257000801306BF81F480110134013D4EE77FEAEC
:10258000645C18BF7FEA655C29D094EA050F08BF38
:1025900090EA020F05D054EA000C04BF1946104619
:1025A00030BD91EA030F1EBF0021002030BD5FEA5D
:1025B000545C05D14000494128BF41F0004130BD85
:1025C00014F580043CBF01F5801130BD01F00045D9
:1025D00045F0FE4141F470014FF0000030BD7FEA4C
:1025E000645C1ABF194610467FEA655C1CBF0B4647
:1025F000024650EA013406BF52EA033591EA030F5E
:1026000041F4002130BD00BF90F0000F04BF002155
:10261000704730B54FF4806404F132044FF0000588
:102620004FF0000150E700BF90F0000F04BF002101
:10263000704730B54FF4806404F1320410F0004567
:1026400048BF40424FF000013EE700BF42004FEA62
:10265000E2014FEA31014FEA02701FBF12F07F43DF
:1026600093F07F4F81F06051704792F0000F14BFDC
:1026700093F07F4F704730B54FF4607401F0004520
:1026800021F0004120E700BF50EA010208BF704777
:1026900030B54FF000050AE050EA010208BF70476C
:1026A00030B511F0004502D5404261EB41014FF4D5
:1026B000806404F132045FEA915C3FF4DCAE4FF0D9
:1026C00003025FEADC0C18BF03325FEADC0C18BFC0
:1026D000033202EBDC02C2F1200300FA03FC20FA11
:1026E00002F001FA03FE40EA0E0021FA02F114445E
:1026F000C1E600BF70B54FF0FF0C4CF4E06C1CEA73
:1027000011541DBF1CEA135594EA0C0F95EA0C0FE7
:1027100000F0DEF82C4481EA030621EA4C5123EA5A
:102720004C5350EA013518BF52EA033541F4801189
:1027300043F4801338D0A0FB02CE4FF00005E1FB3C
:1027400002E506F00042E0FB03E54FF00006E1FB86
:1027500003569CF0000F18BF4EF0010EA4F1FF04C9
:10276000B6F5007F64F5407404D25FEA4E0E6D4109
:1027700046EB060642EAC62141EA55514FEAC5201A
:1027800040EA5E504FEACE2EB4F1FD0C88BFBCF596
:10279000E06F1ED8BEF1004F08BF5FEA500E50F147
:1027A000000041EB045170BD06F0004646EA01010D
:1027B00040EA020081EA0301B4EB5C04C2BFD4EB3F
:1027C0000C0541EA045170BD41F480114FF0000E38
:1027D000013C00F3AB8014F1360FDEBF002001F0A6
:1027E000004170BDC4F10004203C35DA0C341BDC20
:1027F00004F11404C4F1200500FA05F320FA04F0F2
:1028000001FA05F240EA020001F0004221F0004125
:1028100010EBD37021FA04F642EB06015EEA430E98
:1028200008BF20EAD37070BDC4F10C04C4F12005C8
:1028300000FA04F320FA05F001FA04F240EA02007B
:1028400001F0004110EBD37041F100015EEA430E4C
:1028500008BF20EAD37070BDC4F1200500FA05F26C
:102860004EEA020E20FA04F301FA05F243EA0203EB
:1028700021FA04F001F0004121FA04F220EA0200FA
:1028800000EBD3705EEA430E08BF20EAD37070BD40
:1028900094F0000F0FD101F00046400041EB010120
:1028A00011F4801F08BF013CF7D041EA060195F002
:1028B000000F18BF704703F00046520043EB0303BC
:1028C00013F4801F08BF013DF7D043EA06037047A9
:1028D00094EA0C0F0CEA135518BF95EA0C0F0CD0B4
:1028E00050EA410618BF52EA4306D1D181EA0301FA
:1028F00001F000414FF0000070BD50EA410606BFF4
:102900001046194652EA430619D094EA0C0F02D138
:1029100050EA013613D195EA0C0F05D152EA03367D
:102920001CBF104619460AD181EA030101F000419B
:1029300041F0FE4141F470014FF0000070BD41F0E4
:10294000FE4141F4780170BD70B54FF0FF0C4CF4BE
:10295000E06C1CEA11541DBF1CEA135594EA0C0FDD
:1029600095EA0C0F00F0A7F8A4EB050481EA030E2A
:1029700052EA03354FEA013100F088804FEA033311
:102980004FF0805545EA131343EA12634FEA0222DF
:1029900045EA111545EA10654FEA00260EF00041A0
:1029A0009D4208BF964244F1FD0404F5407402D2F2
:1029B0005B084FEA3202B61A65EB03055B084FEA83
:1029C00032024FF480104FF4002CB6EB020E75EB80
:1029D000030E22BFB61A754640EA0C005B084FEAA8
:1029E0003202B6EB020E75EB030E22BFB61A754625
:1029F00040EA5C005B084FEA3202B6EB020E75EB70
:102A0000030E22BFB61A754640EA9C005B084FEAE7
:102A10003202B6EB020E75EB030E22BFB61A7546F4
:102A200040EADC0055EA060E18D04FEA051545EAE3
:102A300016754FEA06164FEAC30343EA52734FEA8C
:102A4000C2025FEA1C1CC0D111F4801F0BD141EA05
:102A500000014FF000004FF0004CB6E711F4801F6A
:102A600004BF01430020B4F1FD0C88BFBCF5E06F4A
:102A70003FF6AFAEB5EB030C04BFB6EB020C5FEA5A
:102A8000500C50F1000041EB045170BD0EF0004EAF
:102A90004EEA113114EB5C04C2BFD4EB0C0541EAE1
:102AA000045170BD41F480114FF0000E013C90E6DE
:102AB00045EA060E8DE60CEA135594EA0C0F08BFA2
:102AC00095EA0C0F3FF43BAF94EA0C0F0AD150EAA1
:102AD00001347FF434AF95EA0C0F7FF425AF104634
:102AE00019462CE795EA0C0F06D152EA03353FF45C
:102AF000FDAE1046194622E750EA410618BF52EAD9
:102B000043067FF4C5AE50EA41047FF40DAF52EAAC
:102B100043057FF4EBAE12E74FF0FF3C06E000BF49
:102B20004FF0010C02E000BF4FF0010C4DF804CD56
:102B30004FEA410C7FEA6C5C4FEA430C18BF7FEA16
:102B40006C5C1BD001B050EA410C0CBF52EA430C44
:102B500091EA030F02BF90EA020F0020704710F1C4
:102B6000000F91EA030F58BF994208BF90422CBF53
:102B7000D8176FEAE37040F0010070474FEA410C4C
:102B80007FEA6C5C02D150EA013C07D14FEA430C6A
:102B90007FEA6C5CD6D152EA033CD3D05DF8040BDB
:102BA000704700BF8446104662468C46194663460D
:102BB00000E000BF01B5FFF7B7FF002848BF10F1E4
:102BC000000F01BD4DF808EDFFF7F4FF0CBF012029
:102BD00000205DF808FB00BF4DF808EDFFF7EAFFA5
:102BE00034BF012000205DF808FB00BF4DF808ED60
:102BF000FFF7E0FF94BF012000205DF808FB00BF55
:102C00004DF808EDFFF7CEFF94BF012000205DF8DE
:102C100008FB00BF4DF808EDFFF7C4FF34BF0120EB
:102C200000205DF808FB00BF4FEA410212F50012D8
:102C300015D211D56FF47873B3EB625212D94FEA03
:102C4000C12343F0004343EA505311F0004F23FAED
:102C500002F018BF404270474FF00000704750EA42
:102C6000013005D111F0004008BF6FF000407047FF
:102C70004FF00000704700BF4FEA4102B2F1E0435D
:102C800024BFB3F5001CDCF1FE5C0DD901F0004C53
:102C90004FEAC0024CEA5070B2F1004F40EB8300A3
:102CA00008BF20F00100704711F0804F21D113F1CF
:102CB0003872BCBF01F00040704741F480114FEA08
:102CC0005252C2F11802C2F1200C10FA0CF320FA91
:102CD00002F018BF40F001004FEAC1234FEAD323AE
:102CE00003FA0CFC40EA0C0023FA02F34FEA430318
:102CF000CCE77FEA625307D150EA01331EBF4FF0A1
:102D0000FE4040F44000704701F0004040F0FE40BB
:102D100040F40000704700BF80F0004002E000BFB8
:102D200081F0004142001FBF5FEA410392EA030FB6
:102D30007FEA226C7FEA236C6AD04FEA1262D2EB00
:102D40001363C1BFD218414048404140B8BF5B4205
:102D5000192B88BF704710F0004F40F4000020F09E
:102D60007F4018BF404211F0004F41F4000121F0B4
:102D70007F4118BF494292EA030F3FD0A2F10102FE
:102D800041FA03FC10EB0C00C3F1200301FA03F13C
:102D900000F0004302D5494260EB4000B0F5000F5F
:102DA00013D3B0F1807F06D340084FEA310102F11E
:102DB0000102FE2A51D2B1F1004F40EBC25008BFD0
:102DC00020F0010040EA03007047490040EB00009A
:102DD00010F4000FA2F10102EDD1B0FA80FCACF1C9
:102DE000080CB2EB0C0200FA0CF0AABF00EBC250C8
:102DF00052421843BCBFD0401843704792F0000FB6
:102E000081F4000106BF80F400000132013BB5E708
:102E10004FEA41037FEA226C18BF7FEA236C21D07E
:102E200092EA030F04D092F0000F08BF08467047E3
:102E300090EA010F1CBF0020704712F07F4F04D1B1
:102E4000400028BF40F00040704712F100723CBFC4
:102E500000F50000704700F0004343F0FE4040F4EE
:102E6000000070477FEA226216BF08467FEA2363AC
:102E70000146420206BF5FEA412390EA010F40F497
:102E8000800070474FF0000304E000BF10F00043E3
:102E900048BF40425FEA000C08BF704743F09643CA
:102EA00001464FF000001CE050EA010208BF7047E5
:102EB0004FF000030AE000BF50EA010208BF70476C
:102EC00011F0004302D5404261EB41015FEA010C81
:102ED00002BF84460146002043F0B64308BFA3F179
:102EE0008053A3F50003BCFA8CF2083AA3EBC2535B
:102EF00010DB01FA02FC634400FA02FCC2F120027A
:102F0000BCF1004F20FA02F243EB020008BF20F0B0
:102F10000100704702F1200201FA02FCC2F1200216
:102F200050EA4C0021FA02F243EB020008BF20EA0B
:102F3000DC7070474FF0FF0C1CEAD0521EBF1CEA39
:102F4000D15392EA0C0F93EA0C0F6FD01A4480EA27
:102F5000010C400218BF5FEA41211ED04FF0006310
:102F600043EA501043EA5111A0FB01310CF000403C
:102F7000B1F5000F3EBF490041EAD3715B0040EA62
:102F8000010062F17F02FD2A1DD8B3F1004F40EB32
:102F9000C25008BF20F00100704790F0000F0CF005
:102FA000004C08BF49024CEA502040EA51207F3AC9
:102FB000C2BFD2F1FF0340EAC250704740F40000A4
:102FC0004FF00003013A5DDC12F1190FDCBF00F095
:102FD00000407047C2F10002410021FA02F1C2F143
:102FE000200200FA02FC5FEA310040F1000053EADF
:102FF0004C0308BF20EADC70704792F0000F00F02D
:10300000004C02BF400010F4000F013AF9D040EA32
:103010000C0093F0000F01F0004C02BF490011F4C6
:10302000000F013BF9D041EA0C018FE70CEAD153C4
:1030300092EA0C0F18BF93EA0C0F0AD030F0004C44
:1030400018BF31F0004CD8D180EA010000F00040F8
:10305000704790F0000F17BF90F0004F084691F0B6
:10306000000F91F0004F14D092EA0C0F01D14202F0
:103070000FD193EA0C0F03D14B0218BF084608D1B9
:1030800080EA010000F0004040F0FE4040F4000003
:10309000704740F0FE4040F4400070474FF0FF0C96
:1030A0001CEAD0521EBF1CEAD15392EA0C0F93EADD
:1030B0000C0F69D0A2EB030280EA010C49024FEA2F
:1030C000402037D04FF0805343EA111143EA1013E8
:1030D0000CF000408B4238BF5B0042F17D024FF4A0
:1030E000000C8B4224BF5B1A40EA0C00B3EB510F7B
:1030F00024BFA3EB510340EA5C00B3EB910F24BF64
:10310000A3EB910340EA9C00B3EBD10F24BFA3EBE8
:10311000D10340EADC001B0118BF5FEA1C1CE0D1B0
:10312000FD2A3FF650AF8B4240EBC25008BF20F063
:10313000010070470CF0004C4CEA50207F32C2BFB7
:10314000D2F1FF0340EAC250704740F400004FF054
:103150000003013A37E792F0000F00F0004C02BF85
:10316000400010F4000F013AF9D040EA0C0093F04F
:10317000000F01F0004C02BF490011F4000F013BA9
:10318000F9D041EA0C0195E70CEAD15392EA0C0F11
:1031900008D142027FF47DAF93EA0C0F7FF470AF49
:1031A000084676E793EA0C0F04D14B023FF44CAF8C
:1031B00008466EE730F0004C18BF31F0004CCAD121
:1031C00030F000427FF45CAF31F000437FF43CAF5D
:1031D0005FE700BF4FF0FF3C06E000BF4FF0010C7F
:1031E00002E000BF4FF0010C4DF804CD4FEA400261
:1031F0004FEA41037FEA226C18BF7FEA236C11D0AB
:1032000001B052EA530C18BF90EA010F58BFB2EB5D
:10321000030088BFC81738BF6FEAE17018BF40F0DD
:10322000010070477FEA226C02D15FEA402C05D191
:103230007FEA236CE4D15FEA412CE1D05DF8040B16
:10324000704700BF844608466146FFE70FB5FFF7A9
:10325000C9FF002848BF10F1000F0FBD4DF808ED61
:10326000FFF7F4FF0CBF012000205DF808FB00BF52
:103270004DF808EDFFF7EAFF34BF012000205DF8AC
:1032800008FB00BF4DF808EDFFF7E0FF94BF0120F9
:1032900000205DF808FB00BF4DF808EDFFF7D2FFF6
:1032A00094BF012000205DF808FB00BF4DF808ED39
:1032B000FFF7C8FF34BF012000205DF808FB00BF06
:1032C0004FEA4002B2F1FE4F0FD34FF09E03B3EB33
:1032D00012620DD94FEA002343F0004310F0004F73
:1032E00023FA02F018BF404270474FF000007047C9
:1032F00012F1610F01D1420205D110F0004008BF68
:103300006FF0004070474FF00000704742000ED24F
:10331000B2F1FE4F0BD34FF09E03B3EB126209D410
:103320004FEA002343F0004323FA02F070474FF0C6
:103330000000704712F1610F01D1420202D14FF03B
:10334000FF3070474FF00000704700BF73B96AB993
:10335000002908BF0028BCBF00204FF00041C4BFB7
:103360006FF000414FF0FF3000F03CB882B0EC4607
:103370002DE9005000F006F8DDF804E002B00CBCC6
:10338000704700BF2DE9704F089E14461D468046C9
:10339000894600F029F804FB01F3A4FB00AB00FB15
:1033A00005329344B8EB0A0869EB0B09C6E90089BA
:1033B000BDE8708F2DE9704F089E14461D4680466B
:1033C000894600F061F900FB05F5A0FB04AB04FBA6
:1033D0000154A344B8EB0A0869EB0B09C6E900895C
:1033E000BDE8708F704700BF00292DE9F00FC0F2D3
:1033F000A1800024002BC0F29880154606460F4697
:10340000002B3FD18A4258D9B2FA82F34BB1C3F1B3
:10341000200201FA03F720FA02F29D4000FA03F6B7
:103420001743290CB7FBF1F201FB1277A8B200FB9E
:1034300002F34FEA164C4CEA0747BB4209D97F1901
:1034400002F1FF3C80F00581BB4240F20281023A6A
:103450002F44FF1AB7FBF1F301FB137100FB03F0DC
:10346000B6B246EA0141884208D9491903F1FF374B
:1034700080F0F180884240F2EE80023B43EA024253
:10348000002303E08B420AD900231A46104619464E
:1034900014B1404261EB4101BDE8F00F7047B3FA4F
:1034A00083F8B8F1000F40F088808B4202D382424B
:1034B00000F2E28000230122E8E712B90123B3FB06
:1034C000F2F5B5FA85F2002A3AD17F1B280C1FFAD3
:1034D00085FC0123B7FBF0F100FB11770CFB01F237
:1034E0004FEA164848EA0747BA4207D97F1901F15F
:1034F000FF3802D2BA4200F2C4804146BF1AB7FB7D
:10350000F0F200FB12700CFB02FCB6B246EA00407F
:10351000844507D9401902F1FF3702D2844500F2F1
:10352000AE803A4642EA0142B0E7E443524263EBDE
:10353000430362E7404261EB41014FF0FF3459E73A
:103540009540C2F1200927FA09F126FA09F99740B6
:10355000280CB1FBF0F800FB18111FFA85FC0CFBDE
:1035600008F349EA07094FEA194747EA01418B4244
:1035700006FA02F608D9491908F1FF327AD28B42CD
:1035800078D9A8F102082944C91AB1FBF0F300FB6D
:1035900013170CFB03F21FFA89F949EA0747BA42ED
:1035A00007D97F1903F1FF3160D2BA425ED9023BDD
:1035B0002F44BF1A43EA08438CE7C8F1200225FADA
:1035C00002F103FA08FC27FA02F320FA02F207FAE2
:1035D00008F741EA0C0C4FEA1C49B3FBF9F109FB6F
:1035E00011331FFA8CFA0AFB01FB17433A0C42EA2B
:1035F00003439B4505FA08F008D913EB0C0301F1CE
:10360000FF3235D29B4533D902396344CBEB0303F8
:10361000B3FBF9F209FB12330AFB02FABFB247EA25
:103620000347BA4508D917EB0C0702F1FF331BD249
:10363000BA4519D9023A674442EA0145A5FB00019F
:10364000CAEB07078F424FF000030AD305D02A4682
:103650001CE76246FDE63B4610E706FA08F686429E
:10366000F5D26A1E002311E71A46E5E70B46A0E7EC
:103670001146CBE7904687E74346424606E7023AC3
:1036800050E702392F4439E72DE9F00F144605467B
:103690000E46002B43D18A4253D9B2FA82F757B172
:1036A000C7F1200620FA06F601FA07F302FA07F43A
:1036B00000FA07F51E43210CB6FBF1F201FB12667E
:1036C000A0B200FB02F32F0C47EA0646B34209D929
:1036D000361902F1FF3780F0FD80B34240F2FA80E4
:1036E000023A2644F61AB6FBF1F301FB136100FB24
:1036F00003F0ADB245EA0141884208D9091903F146
:10370000FF3680F0E980884240F2E680023B43EADF
:103710000242002310461946BDE8F00F70478B4265
:103720004CD8B3FA83F6002E4FD18B4202D382429B
:1037300000F2DD80BDE8F00F00230122104619469B
:10374000704712B90124B4FBF2F4B4FA84F2002AEF
:1037500040F08280091B260CA7B20123B1FBF6F0D2
:1037600006FB101107FB00F24FEA154C4CEA014131
:103770008A4207D9091900F1FF3C02D28A4200F2BD
:10378000C8806046891AB1FBF6F206FB121107FBEE
:1037900002F7ADB245EA0145AF4208D92C1902F152
:1037A000FF3180F09B80A74240F29880023A42EAC3
:1037B000004210461946BDE8F00F704700231A4634
:1037C00010461946BDE8F00F7047C6F1200522FAF1
:1037D00005F703FA06F421FA05F301FA06FB20FACD
:1037E00005F53C434FEA1448B3FBF8FC08FB1C33D7
:1037F0001FFA84F909FB0CFA45EA0B0B4FEA1B454B
:1038000045EA03439A4502FA06F204D91B190CF162
:10381000FF356FD3AC46CAEB0303B3FBF8F508FBE7
:10382000153309FB05F91FFA8BFB4BEA0347B94532
:1038300004D93F1905F1FF3362D31D4645EA0C4C0C
:10384000ACFB0223C9EB07079F424FF000054AD3A8
:1038500046D062462B465DE79440C2F1200921FA2A
:1038600009FC914020FA09F9260CBCFBF6F806FB8E
:1038700018CCA7B207FB08F349EA01094FEA19413E
:1038800041EA0C4C634500FA02F509D91CEB040C23
:1038900008F1FF323BD2634539D9A8F10208A444AC
:1038A000C3EB0C0CBCFBF6F306FB13C107FB03F2E6
:1038B0001FFA89F949EA01418A4207D9091903F136
:1038C000FF3022D28A4220D9023B2144891A43EA9E
:1038D000084343E73A4605E7334618E70A4666E7F2
:1038E000B0409042B5D20CF1FF32002312E73346CC
:1038F00032460FE79A458DD9ACF1020C23448AE792
:10390000B9459AD9023D274498E70346DEE7904639
:10391000C6E70238214435E708B5074B044613B122
:103920000021AFF30080054B1868836A03B1984704
:10393000204600F005F900BF00000000843B0000B5
:1039400070B50E4B0E4D0024ED1AAD101E46AC4264
:1039500004D056F8242090470134F8E700F0F2F83C
:10396000084D094B0024ED1AAD101E46AC4204D0A0
:1039700056F8242090470134F8E770BD700000200D
:10398000700000207400002070000020024B0146EF
:10399000186800F057B800BF6C000020024B0146C9
:1039A000186800F00BB800BF6C000020024403460A
:1039B000934202D003F8011BFAE7704730B50029A3
:1039C0003CD051F8042C0B1F1D49002AB8BF9B188E
:1039D0000A680C4612B95A600B6030BD93420DD292
:1039E00019685818904203D15A5811444268196016
:1039F0005A60236030BD994203D80A4651680029B5
:103A0000F9D1146815199D420AD11B682344D018B6
:103A10008842136012D10868034413604B680CE0BD
:103A200002D90C23036030BD18681C188C4203D1E6
:103A30000C684968204418605960536030BD00BF6D
:103A40009801002070B5CD1C25F0030508350C2D1C
:103A500038BF0C25002D06463FDB8D423DD3214B60
:103A60001C6818462146A1B10B685B1B0ED40B2BBA
:103A700003D90B60CC18CD501FE08C4202D1626894
:103A800002601AE04B6863600C4616E00C46496819
:103A9000E9E7154C23681BB9304600F027F8206091
:103AA0002946304600F022F8431C014615D0C41CBC
:103AB00024F0030484420AD1256004F10B00231D85
:103AC00020F00700C31A0BD05A42E25070BD3046B6
:103AD000611A00F00BF80130EED10C2333600020A6
:103AE00070BD00BF980100209401002038B5064C3D
:103AF000002305460846236000F008F8431C02D165
:103B0000236803B12B6038BD0C020020094A1368FA
:103B100063B118446946884202D81060184670475D
:103B2000054B0C221A604FF0FF307047034B1360B7
:103B3000EFE700BF9C0100200C02002010020020D3
:103B4000FEE700BFF8B500BFF8BC08BC9E46704752
:103B5000F8B500BFF8BC08BC9E46704701010000E4
:103B600000000000486B0100000000000502020593
:103B7000FB02FE0505FE02FBFBFEFEFBFFFF080944
:0C3B8000110843000C00002000000000B1
:083B8C0064C5FF7F0100000089
:103B940084B80000008000000048E8010000000034
:103BA4000000000000000000000000000000000011
:103BB400000000000000000000000000823B000044
:103BC40000000000000000000000000000000000F1
:103BD40000000000000000000000000000000000E1
:103BE40000000000000000000000000000000000D1
:103BF4000000000000000000000000000C00002095
:0C3C0400C10000009D0000000000000056
:040000030000226572
:00000001FF
